:200000000C9434001895000018950000189500000C949523189500001895000018950000A6
:20002000189500001895000018950000189500001895000018950000189500001895000058
:20004000189500001895000018950000189500001895000018950000189500001895000038
:2000600018950000189500008FEF8DBFC0ECE8E14E2E88E08EBFD8E0F8E05F2EA89584B721
:20008000082E877F84BF88E199278093600090936000EEEFF7E0A0E0B1E088278D93319766
:2000A000E9F766247DE378B977EC74B97CE07BB987E880937A0080E080937C0070917A00BF
:2000C000706870937A0000917C00007F0E6000937C000E94FA33AEE4B1E08D939C930E94DF
:2000E0004329AEE4B1E00D911C91053250E0150718F011F00C947E000C948A000E94A429E3
:2001000035990C948800809160008860809360000C947E002F9A0E94A4290E94A429AEE4C6
:20012000B1E00D911C910E3150E0150710F00C949B000E94C92878E17093C10070EC70930E
:20014000C20071E07093C4007EEF7AB9389A2E9A8AE090E00E941A2A70E07093C4000E9412
:20016000B92AABE6B3E09C9388EC8093E2070E948311AEE4B1E00E94863481E00E940B2BEB
:20018000092F003011F40C94DF008FEA8093620184E1809363017091E10770687093E107FC
:2001A0000E945807A3EEB7E0E4EFFBE60E94F43370916A03786070936A030C945E015A92F8
:2001C0004A9280E0D2018C9381E00E94C3330E946820229681E00E94AE290E9458070E9499
:2001E0008A23A0E0B8E0E4E0FCE60E94F433A2EEB7E08C91A0E0B8E00E94012CE894A2EE94
:20020000B7E08C91A8E6B1E00E944F2C00914E0140916801041BAEE4B1E00C93A8E6B1E0D4
:200220009C91AEE4B1E00E941134E894A2EEB7E08C91A8E6B1E00E944F2C00914F014091D9
:200240006801040FAFE4B1E00C93A8E6B1E09C91AEE4B1E00E941E34A2EEB7E08C910E9416
:20026000202C082F0F3F11F00C94FE00A2EEB7E0E0E1F0E00E94A22C003011F40C944401CC
:20028000AEE4B1E00E948634A2EEB7E08C910E94172CAEE4B1E00D911C9106305BE41507B7
:2002A00011F40C945E01A3EEB7E0E0E1FCE60E94F43370916A03786070936A03AAE6B3E0CD
:2002C0008C9183FB16F00C94850170916A03706870936A030E94500D5A924A92E3EEF7E032
:2002E000D2010E94C3358FE00E94C3330E94270922968FE00E94AE290E94B8070E94C92824
:2003000081E080936A010C949F0170916A03706170936A035A924A92D201E0E2FCE60E942E
:20032000F43388E00E94C3330E94AF0B229688E00E94AE2970916A037F7E70936A037091C5
:200340006A03706470936A0381E08093DF070091E007003011F00C94100334990C94CC01FC
:200360000E94C428A6E2B0E08C9184FBDEF70E94C428AFEDB7E08C918F5F8C930091DF0704
:20038000063011F00C94C70185E08093DF0770916A03706470936A0333990C94EB010E94B4
:2003A000C428A6E2B0E08C9183FBDEF70E94C4288091DF0781508093DF070091DF070030D3
:2003C00011F00C94E60181E08093DF0770916A03706470936A03AAE6B3E08C9186FB16F0C2
:2003E0000C94800270916A037F7B70936A030E94220D5A924A92D201E8E2FCE60E94F43322
:2004000085E50E94C3330E942709229685E50E94AE290091DF07013011F00C941F020E9461
:20042000390DA3EEB7E0EEE7FCE60E94F433A2EFB7E0EEE8FCE60E94F4330C9467020230EA
:2004400011F00C9433020E94500DA3EEB7E0E4E9FCE60E94F433A2EFB7E0E4EAFCE60E94AD
:20046000F4330C946702033011F00C9447020E94670DA3EEB7E0ECEAFCE60E94F433A2EFDF
:20048000B7E0ECEBFCE60E94F4330C946702043011F00C945B020E947E0DA3EEB7E0E2ECE5
:2004A000FCE60E94F433A2EFB7E0E2EDFCE60E94F4330C946702053011F00C9467020E9405
:2004C000950DA3EEB7E0E8EDFCE60E94F43370916A03706870936A035A924A92E3EEF7E0AC
:2004E000D2010E94C3358FE00E94C3330E94270922968FE00E94AE290E9443290E94B807A7
:20050000A6E2B0E00C9105FB81E00EF480E08F93AAE6B3E08C9183FB81E00EF480E09F9190
:200520008923882311F40C94AC020E94C428A6E2B0E08C9185FBDEF70E94C4280E94C428DD
:200540000E94C4280E94C42881E08093E00770916A03706470936A0332990C940E030E9454
:20056000C4280E94C4280E94C4280E94C42832990C940E030E94C92832990C940E03709159
:200580006A03716070936A035A924A92D201E8EEFCE60E94F43388E00E94C3330E94AF0B35
:2005A000229688E00E94AE2970917A007F7770937A0070E07093C10070E07CBD80E084B97A
:2005C00080E087B980E08AB970E075B970E078B970E07BB9789474E070936C00329AA6E232
:2005E000B0E08C9182FBDEF70E94C9287091680072607093680073B7707F756073BF889586
:200600000E94C92832990C940C03809160008860809360000C940E030C94FB020C944107CB
:2006200034990C945A030E94C428A6E2B0E08C9184FBDEF70E94C428A0EEB7E08C918F5F1B
:200640008C930091DF07013081E009F080E08F930091DF07023081E009F080E09F91892BB0
:20066000882311F40C943D030091E007043011F00C943D0383E08093E0070091DF07043055
:2006800011F00C944C030091E007053011F00C944C0384E08093E0070091E007063011F0C0
:2006A0000C94550385E08093E00770916A03706470936A0333990C9479030E94C428A6E233
:2006C000B0E08C9183FBDEF70E94C4288091E00781508093E0070091E007003011F00C9480
:2006E000740381E08093E00770916A03706470936A0335990C9493030E94C428A6E2B0E0CC
:200700008C9185FBDEF770916A03706270936A0370916A03706470936A030E94C4280E94D5
:20072000C4280E94C428AAE6B3E08C9186FB16F00C9422070E94432970916A037F7B709336
:200740006A035A924A9282E1D2018C9381E00E94C3335A924A9288E0D2018C9381E00E94F1
:20076000C3335A924A9284E5D2018C9381E00E94C3335A924A9288E0D2018C9381E00E9442
:20078000C3330E94070A289684E00E94AE295A924A9282E1D2018C9381E00E94C3335A9213
:2007A0004A9288E0D2018C9381E00E94C3335A924A9282E1D2018C9381E00E94C3335A9208
:2007C0004A9280E3D2018C9381E00E94C3330E94070A289684E00E94AE295A924A9284E075
:2007E000D2018C9381E00E94C3335A924A9282E0D2018C9381E00E94C3330E94370824965E
:2008000082E00E94AE290091DF07053011F00C941104A3EEB7E0E0EFFCE60E94F4330C9459
:200820001704A3EEB7E0ECEFFCE60E94F4330091E007013011F00C94220470916A03706839
:2008400070936A035A924A92E3EEF7E0D2010E94C3358FE00E94C3330E94270922968FE04B
:200860000E94AE295A924A9284E0D2018C9381E00E94C3335A924A9283E0D2018C9381E06A
:200880000E94C3330E943708249682E00E94AE290091DF07053011F00C945604A3EEB7E07B
:2008A000E8E0FDE60E94F4330C945C04A3EEB7E0E4E1FDE60E94F4330091E007023011F080
:2008C0000C94670470916A03706870936A035A924A92E3EEF7E0D2010E94C3358FE00E9469
:2008E000C3330E94270922968FE00E94AE295A924A9284E0D2018C9381E00E94C3335A928D
:200900004A9284E0D2018C9381E00E94C3330E943708249682E00E94AE290091DF0705308A
:2009200011F00C949B04A3EEB7E0E0E2FDE60E94F4330C94A104A3EEB7E0ECE2FDE60E9421
:20094000F4330091E007033011F00C94AC0470916A03706870936A035A924A92E3EEF7E04E
:20096000D2010E94C3358FE00E94C3330E94270922968FE00E94AE295A924A9284E0D20192
:200980008C9381E00E94C3335A924A9285E0D2018C9381E00E94C3330E943708249682E02A
:2009A0000E94AE290091DF07033011F00C94E004A3EEB7E0E8E3FDE60E94F4330C94020549
:2009C0000091DF07043011F00C94EE04A3EEB7E0E4E4FDE60E94F4330C9402050091DF071F
:2009E000053011F00C94FC04A3EEB7E0E0E5FDE60E94F4330C940205A3EEB7E0ECE5FDE605
:200A00000E94F4330091E007043011F00C940D0570916A03706870936A035A924A92E3EE5F
:200A2000F7E0D2010E94C3358FE00E94C3330E94270922968FE00E94AE295A924A9284E0CD
:200A4000D2018C9381E00E94C3335A924A9286E0D2018C9381E00E94C3330E9437082496F7
:200A600082E00E94AE290091DF07033011F00C944105A3EEB7E0E8E6FDE60E94F4330C94C8
:200A800055050091DF07053011F00C944F05A3EEB7E0E4E7FDE60E94F4330C945505A3EE31
:200AA000B7E0ECE5FDE60E94F4330091E007053011F00C94600570916A03706870936A03B9
:200AC0005A924A92E3EEF7E0D2010E94C3358FE00E94C3330E94270922968FE00E94AE29C0
:200AE0000091E007013011F00C9492050091DF07053011F00C948705AAE6B3E08C9185FB7C
:200B000016F00C9485050E94CE280C949005AAE6B3E08C9185FB16F00C9490050E94CC234C
:200B20000C94CF06023011F00C94B2050091DF07053011F00C94A705AAE6B3E08C9185FBFD
:200B400016F00C94A5050E94CE280C94B005AAE6B3E08C9185FB16F00C94B0050E94AF25C7
:200B60000C94CF06033011F00C94D2050091DF07053011F00C94C705AAE6B3E08C9185FB7C
:200B800016F00C94C5050E94CE280C94D005AAE6B3E08C9185FB16F00C94D0050E94FF26D6
:200BA0000C94CF06043011F00C94AB060091DF07033011F00C944106AAE6B3E08C9185FBE8
:200BC00016F00C943F060E94920EAFEFB7E08C9187FB16F40C9438065A924A92D201E0E8C9
:200BE000FDE60E94F4338FE00E94C3330E94270922968FE00E94AE290E94670D0E949D1269
:200C00005A924A92E3EEF7E0D2010E94C3358FE00E94C3330E94270922968FE00E94AE297E
:200C20000E947E0D5A924A92D201E0E9FDE60E94F4338CE00E94C3330E94270922968CE07D
:200C40000E94AE290E9400120E94950D5A924A92E3EEF7E0D2010E94C3358FE00E94C3333F
:200C60000E94270922968FE00E94AE290E94B8070E948311A6E2B0E08C9182FBDEF30C9448
:200C8000A9060091DF07043011F00C949A06AAE6B3E08C9185FB16F00C9498060E94920E73
:200CA000AFEFB7E08C9187FB16F40C9491060E94DC135A924A92D201ECE9FDE60E94F43372
:200CC0008FE00E94C3330E94270922968FE00E94AE290E94670D5A924A92D201ECEAFDE631
:200CE0000E94F4338CE00E94C3330E94270922968CE00E94AE290E9473130E947E0D5A9277
:200D00004A92E3EEF7E0D2010E94C3358FE00E94C3330E94270922968FE00E94AE290E94C7
:200D2000B8070E948311A6E2B0E08C9182FBDEF30C94A9060091DF07053011F00C94A906F0
:200D4000AAE6B3E08C9185FB16F00C94A9060E94CE280C94CF06053011F00C94CF06009135
:200D6000DF07033011F00C94C006AAE6B3E08C9185FB16F00C94BE060E94901B0C94CF0607
:200D80000091DF07053011F00C94CF06AAE6B3E08C9185FB16F00C94CF060E94CE285A9272
:200DA0004A9284E5D2018C9381E00E94C3335A924A9288E0D2018C9381E00E94C3335A92FC
:200DC0004A9284E5D2018C9381E00E94C3335A924A9280E3D2018C9381E00E94C3330E942B
:200DE000070A289684E00E94AE295A924A9282E1D2018C9381E00E94C3335A924A9280E306
:200E0000D2018C9381E00E94C3335A924A9284E5D2018C9381E00E94C3335A924A9280E3A0
:200E2000D2018C9381E00E94C3330E94070A289684E00E94AE290E94B80770916A037F7DAE
:200E400070936A0332990C9441070091DF07053011F00C9439075A924A9281E0D2018C93C7
:200E600081E00E94C3330E946820229681E00E94AE2980E08093E00770916A03706470931E
:200E80006A030C94A701F894FFCF5E985D98A9E6B1E08C918093C6008091C00087FFFCCF20
:200EA000A9E6B1E08091C6008C935D9A5E9A08950E94C4285F980E94C4285F9A5E9A81E229
:200EC000809369010E94450785E0809369010E94450786E0809369010E9445078091620192
:200EE000809369010E94450780916301809369010E94450780E2809369010E9445078CE06E
:200F0000809369010E94450780E4809369010E94450780E8809369010E9445070E94930788
:200F20000E94B807089582E00E94BD33A881B9810E948634A881B9810E94B62980E0A88193
:200F4000B981AD90BC90AEE6B1E0AA0DBB1D8C93A881B9810D911C91083F51E0150711F0B8
:200F60000C949A0782E0481A80E0580A22960895A1EEB7E08C9186FBA4ECB0E08C9180F9DB
:200F80008C9382E00E94BD3381E00E94BD3380E8809369010E94450780E4809369010E94F5
:200FA0004507AA81BB810E94863480E0A881B9818C935E985D9AAA81BB810E94B629AA8140
:200FC000BB81AD90BC90AEE6B1E0AA0DBB1D8C918093C6008091C00087FFFCCFA9E6B1E060
:200FE0008091C6008C93A1EEB7E00C9107FB16F00C942208A881B9818C918F5F8C93A881B0
:20100000B9810C91043511F00C942208A881B9818C918F5F8C9370E07093C6008091C0007E
:2010200087FFFCCFA9E6B1E08091C6008C93A881B9810C91063611F00C94060880E0A881D5
:20104000B9818C93AA81BB810D911C91083F51E0150711F00C94DB075E9A5D9870E070932E
:20106000C40083E0481A80E0580A2496089582E00E94BD3382E00E94BD33AE81BF810E94D5
:20108000B229AE81BF818C91AA81BB818D9388278C93AA81BB810D911C9146E050E00E94EA
:2010A000C733AA81BB810D931C93AC81BD810E94B229AC81BD818C91A881B9818D938827DE
:2010C0008C93AC81BD810D91112744E550E00E94C733A881B9810D931C93AA81BB810D9104
:2010E0001C91A881B9814D915C91040F151FA7E6B3E00D931C93A7E6B3E00E94B62984E05A
:20110000481A80E0580A2496089581E00E94BD3382E00E94BD3381E00E94BD3381E00E9477
:20112000BD3381E00E94BD3382E00E94BD3382E00E94BD33AE85BF850C91003210F00C94FE
:20114000A5088CE5AE85BF858C93AE85BF850C910C3718F011F00C94AF080C94B3088CE558
:20116000AE85BF858C93AE85BF850D91112740E250E0041B150BAA85BB850D931C93AA850E
:20118000BB850D911C9145E050E00E94C733AA85BB850D931C9380E0AC85BD858C93AC85F2
:2011A000BD858C918F5F8C93E8E5FBE1AA85BB858D919C91A885B9850E948334AAE6B3E079
:2011C0008C9187FB16F00C94FB08AC85BD850C91063011F00C94F2088FEFA885B9858C93DE
:2011E0000C94F908A885B9858C918C939FEF89278C930C940609AC85BD850C91063011F054
:201200000C94060980E0A885B9858C93A885B9858C91A7E6B3E0AD90BC90AEE6B1E0AA0D28
:20122000BB1D8C93A7E6B3E00E94B629AA85BB850E94B629AC85BD850C91063011F00C943F
:20124000CF088AE0481A80E0580A2E96089581E00E94BD3382E00E94BD3380E0AA81BB811A
:201260008C93AA81BB818C918F5F8C93AA81BB818C91EC81FD8101E00A93A981BA810E94CA
:20128000CF35A881B9818C91A9E6B3E08C93009169030E3711F00C9450098BE7809369035C
:2012A0005A924A9280916903D2018C9381E00E94C3330E948508229681E00E94AE29AC8110
:2012C000BD810E94DE35482FAA81BB810C91041711F00C94310970916A037F7770936A03D6
:2012E00083E0481A80E0580A2496089582E00E94BD3381E00E94BD3381E00E94BD33A88509
:20130000B9850C91043518F011F00C9489090C948B090C94010AAE81BF810C91003318F058
:2013200011F00C9495090C9497090C94010AAE81BF810E94B229AE81BF818C91AC81BD81A0
:201340008D9388278C9393E0AC81BD810E945734AC81BD818C91AA81BB818C93AC81BD811B
:201360000D911C9144E550E00E94C733AC81BD810D931C93AC81BD810D911C91A885B98552
:201380004D915527040F151FAC81BD810D931C9393E0AA81BB810E942B34AE81BF810C910B
:2013A000AA81BB814C91041BAA81BB810C93AC81BD81AD90BC90AEE6B1E0AA0DBB1D8C91FF
:2013C00080936E0181E0A881B9818C93AA81BB819C91A881B9810E942B3400916E01A88187
:2013E000B9814C91042BAEE6B1E00C9380916E01AC81BD81AD90BC90AEE6B1E0AA0DBB1DBB
:201400008C9384E0481A80E0580A2696089582E00E94BD3382E00E94BD3382E00E94BD33F0
:2014200082E00E94BD3382E00E94BD3381E00E94BD33AC85BD850D911127A889B9894D9137
:201440005527041B150BA885B9850D931C93AE85BF850D911127AA89BB894D915527041BDA
:20146000150BAA85BB850D931C93A885B9850D911C91003050E015070CF402C00C94540A9C
:20148000A885B9850D911C914FEF5FEF0E94C733A885B9850D931C938FEF9FEFAC81BD813D
:2014A0008D939C930C945A0A81E090E0AC81BD818D939C93AA85BB850D911C91003050E034
:2014C00015070CF402C00C94790AAA85BB850D911C914FEF5FEF0E94C733AA85BB850D931A
:2014E0001C938FEF9FEFAE81BF818D939C930C947F0A81E090E0AE81BF818D939C9391E04A
:20150000AA85BB850E94333491E0A885B9850E9433345A924A92AC89BD898C91D2018C931C
:2015200081E00E94C3335A924A92AC89BD898C91D2018C9381E00E94C3330E94760924968C
:2015400082E00E94AE29A885B9854D915C91AA85BB850D911C91041715071CF011F00C94DC
:20156000B30A0C942F0BAA85BB858C91A881B9818C9391E0A881B9810E944F34A885B98562
:201580000D911C91A881B9814D915527041B150BAA81BB810D931C93AE85BF854C91AA89C7
:2015A000BB890C91041711F40C942D0BAA81BB810D911C91003050E015070CF002C00C94C6
:2015C000F90AA889B9890C91AC81BD814C91040FA889B9890C93AA81BB810D911C91AA85AA
:2015E000BB854D915C91041B150BAA81BB810D931C93AA89BB890C91AE81BF814C91040F78
:20160000AA89BB890C93AA81BB810D911C91A885B9854D915C91040F151FAA81BB810D937E
:201620001C935A924A92AC89BD898C91D2018C9381E00E94C3335A924A92AC89BD898C9150
:20164000D2018C9381E00E94C3330E947609249682E00E94AE290C94CC0A0C94A90BA885F2
:20166000B9858C91A881B9818C9391E0A881B9810E944F34AA85BB850D911C91A881B98177
:201680004D915527041B150BAA81BB810D931C93AC85BD854C91A889B9890C91041711F47B
:2016A0000C94A90BAA81BB810D911C91003050E015070CF002C00C94750BAA89BB890C91B6
:2016C000AE81BF814C91040FAA89BB890C93AA81BB810D911C91A885B9854D915C91041B8E
:2016E000150BAA81BB810D931C93A889B9890C91AC81BD814C91040FA889B9890C93AA816C
:20170000BB810D911C91AA85BB854D915C91040F151FAA81BB810D931C935A924A92AC890E
:20172000BD898C91D2018C9381E00E94C3335A924A92AC89BD898C91D2018C9381E00E9406
:20174000C3330E947609249682E00E94AE290C94480B8BE0481A80E0580A2C96089582E09A
:201760000E94BD3382E00E94BD3381E00E94BD3381E00E94BD3381E00E94BD3381E00E9407
:20178000BD3381E00E94BD33A0E0B8E0E8EBFDE60E94F433A0E0B8E00E94B92BA0E0B8E019
:2017A000EAEBFDE60E94F433A0E0B8E00E94B92BAE85BF850E94B92B00917303003011F4D1
:2017C0000C94000CA0E0B8E0E8EBFDE60E94F433A0E0B8E00E94B92BA0E0B8E0EAEBFDE658
:2017E0000E94F433A0E0B8E00E94B92BAE85BF850E94042AE2ECFDE60E94F4330C940C0C09
:20180000A0E0B8E0E8ECFDE60E94F433A0E0B8E0EE85FF850E94682CA2EEB7E08C91AE8574
:20182000BF850E94012C0BE010E020E030E06894A2EEB7E08C91AC85BD850E944D2CAC85AB
:20184000BD850E94B62989EF91E0AA85BB858D939C93AA85BB850D911C9144E550E0041BEC
:20186000150BAA85BB850D931C9387E0A881B9818C9380E0AC81BD818C93AC81BD818C912F
:201880008F5F8C93AC85BD850D911C91222733276894A2EEB7E08C91AE81BF810E944F2C0E
:2018A000AE81BF818C9180958C9387E0A885B9858C9381E0AA81BB818C93AC81BD810C9188
:2018C0000B3011F00C94680C85E0AA81BB818C93AC81BD810C910C3011F00C94710C0C94CB
:2018E000AC0CA885B9858C91AE81BF810E949E340E9494340C900822689409F4E894A881F7
:20190000B9818C91AA85BB85AD90BC90AEE6B1E0AA0DBB1D0E949E340E9494340C9016F044
:20192000092201C0082A0C92AA85BB850E94B629A885B9850E94B229AA81BB818C918F5FA1
:201940008C93AA81BB810C91093011F00C94710CAC85BD850E94B629AC81BD810C910C30D5
:2019600011F00C943D0CAA85BB850D911C9144E550E0041B150BAA85BB850D931C93A88144
:20198000B9810E94B229AC85BD850E94B629A881B9810C910F3F11F00C94390CAA85BB85F9
:2019A0000D911C91013050E0150711F00C94290CA2EEB7E08C910E94172CAAE6B3E08C9120
:2019C00084FB16F00C94F60C0E94950D5A924A92D201EEECFDE60E94F43388E00E94C3337B
:2019E0000E942709229688E00E94AE290E94B807EE85FF850E94902CA6E2B0E00C9102FB14
:201A000081E00EF480E08F93AAE6B3E08C9180FB81E00EF480E09F918923882311F40C9437
:201A2000130D0C941C0DAE85BF850E94DE35082F003011F00C940C0C89E0481A80E0580AE4
:201A40002E9608955A924A9281E0D2018C9381E00E94C3335A924A9281E0D2018C9381E095
:201A60000E94C3330E943708249682E00E94AE2908955A924A9281E0D2018C9381E00E949D
:201A8000C3335A924A9282E0D2018C9381E00E94C3330E943708249682E00E94AE29089528
:201AA0005A924A9281E0D2018C9381E00E94C3335A924A9283E0D2018C9381E00E94C333FC
:201AC0000E943708249682E00E94AE2908955A924A9281E0D2018C9381E00E94C3335A92F3
:201AE0004A9284E0D2018C9381E00E94C3330E943708249682E00E94AE2908955A924A92E0
:201B000081E0D2018C9381E00E94C3335A924A9285E0D2018C9381E00E94C3330E94370880
:201B2000249682E00E94AE2908955A924A9281E0D2018C9381E00E94C3335A924A9286E031
:201B4000D2018C9381E00E94C3330E943708249682E00E94AE290895000000000000002F58
:201B600000000007000700147F147F14242A7F2A12C4C810264636495522500005030000BE
:201B8000001C2241000041221C0014083E081408083E080800005030001010101010006043
:201BA00060000020100804023E5149453E00427F400042615149462141454B311814127FC8
:201BC0001027454545393C4A49493001710905033649494936064949291E00363600000069
:201BE000563600000814224100141414141400412214080201510906324959513E7E111191
:201C0000117E7F494949363E414141227F4141221C7F494949417F090909013E4149497A82
:201C20007F0808087F00417F41002040413F017F081422417F404040407F020C027F7F049E
:201C400008107F3E4141413E7F090909063E4151215E7F09192946464949493101017F01DB
:201C6000013F4040403F1F2040201F3F4038403F631408146307087008076151494543002A
:201C80007F414100552A552A550041417F00040201020440404040400001020400205454D3
:201CA00054787F484444383844444420384444487F3854545418087E0901020C5252523E08
:201CC0007F0804047800447D40002040443D007F1028440000417F40007C041804787C0888
:201CE00004047838444444387C14141408081414187C7C080404084854545420043F4440E5
:201D0000203C4040207C1C2040201C3C4030403C44281028440C5050503C4464544C4404BB
:201D20000204020081E00E94BD3384E00E94BD3381E00E94BD3380916A01A881B9818C93C1
:201D400073E57CBD239A2498259A419A399A81E090E00E941A2AA881B9810E94B229709174
:201D6000FF077F777093FF07A881B9810C91003011F00C94C90E70E87093610074E07093A3
:201D80006100A3EEB7E0E6EDFDE60E94F4330C94450F013011F00C94DB0E7CB571607CBD51
:201DA0007DB57E7F7DBDA3EEB7E0E0EEFDE60E94F4330C94450F023011F00C94EA0E7DB527
:201DC0007E7F7DBDA3EEB7E0ECEEFDE60E94F4330C94450F033011F00C94FF0E7CB57E7F1B
:201DE0007CBD7CB572607CBD7DB571607DBDA3EEB7E0E8EFFDE60E94F4330C94450F04305E
:201E000011F00C94110F7CB571607CBD7DB57E7F7DBDA3EEB7E0E4E0FEE60E94F4330C9424
:201E2000450F053011F00C94230F7CB571607CBD7DB571607DBDA3EEB7E0EEE0FEE60E9452
:201E4000F4330C94450F063011F00C94320F7DB57E7F7DBDA3EEB7E0E8E1FEE60E94F43348
:201E60000C94450F073011F00C94450F7CB57E7F7CBD7CB57D7F7CBD7DB571607DBDA3EEA7
:201E8000B7E0E2E2FEE60E94F43341982D9881E090E00E941A2A419A81E090E00E941A2A53
:201EA00041980E94C4285A924A928CEAD2018C9381E00E94C3330E949211229681E00E9492
:201EC000AE295A924A9283E5D2018C9381E00E94C3330E949211229681E00E94AE290E9497
:201EE0009E1100916001033511F40C947C0F7091FF0770687093FF070E949E1180E0AC8113
:201F0000BD818C93AC81BD818C918F5F8C930E94AD11009162010E3111F40C94940F7091F3
:201F2000FF0770687093FF0700916301003981E008F080E08F9300916301083980E010F01B
:201F400009F081E09F91892B882311F40C94AD0F7091FF0770687093FF07AC81BD810C9147
:201F60000F3F11F00C94820FAFEFB7E08C9187FB81E00EF480E08F93A881B9810C910030F8
:201F800081E009F080E09F91892B882311F40C94A70E0E9493075A924A9281E0D2018C9347
:201FA00081E00E94C3335A924A9281E0D2018C9381E00E94C3330E943708249682E00E9475
:201FC000AE295A924A92E3EEF7E0D2010E94C3358FE00E94C3330E94270922968FE00E94AB
:201FE000AE29AFEFB7E08C9187FB16F00C940010A3EEB7E0ECE2FEE60E94F4330C94181114
:20200000A0E0B8E0E8EBFDE60E94F433A0E0B8E00E94B92BA0E0B8E0EAEBFDE60E94F433F2
:20202000A0E0B8E00E94B92B0E945730A2EEB7E08C93A0E0B8E0ECE3FEE60E94F433A2EE6F
:20204000B7E08C91A0E0B8E00E94012CAA81BB81E0EFFBE60E947B347091FF077F7770937D
:20206000FF0781E0AC81BD818C93AC81BD810C91033018F011F00C948410AA81BB810D91F2
:202080001D912D913C91689442E0A2EEB7E08C91ABE6B1E00E94502CABE6B1E00E94A935C3
:2020A000402F512F622F732FAC81BD81AD90BB24A1E6B1E0AA0DBB1D0C9111272227332758
:2020C0000E94F03411F40C946A107091FF0770687093FF07AA81BB810D911D912D913C91F5
:2020E00042E050E060E070E00E94E634AA81BB810D931D932D933D93AC81BD818C918F5F85
:202100008C9310F40C943510AA81BB810D911D912D913C914EE250E060E070E00E94E634CD
:20212000AA81BB810D931D932D933D93AFEFB7E08C9187FB81E00EF480E08F93ABE6B1E07D
:202140000E94A93540E050E060E070E00E94F03481E009F080E09F91892B882311F40C946B
:202160002C10AFEFB7E08C9187FB16F40C940D1181E0AC81BD818C93AC81BD810C910F3055
:2021800018F011F00C94E210E89442E0A2EEB7E08C91ABE6B1E00E94502CABE6B1E00E94BE
:2021A000A935AC81BD81AD90BB24A1E5B1E0AA0DBB1D0C93AC81BD818C918F5F8C9310F4DC
:2021C0000C94BC10E8944EE0A2EEB7E08C91A3EEB7E00E94502C7091FF0770627093FF077D
:2021E0007091FF077F7B7093FF0700915401003011F00C9400117091FF077F7D7093FF0701
:2022000000915301003011F00C940B117091FF0770647093FF070C941311A3EEB7E0E4E454
:20222000FEE60E94F433A2EEB7E08C910E94172C5A924A9281E0D2018C9381E00E94C333B4
:202240005A924A9282E0D2018C9381E00E94C3330E943708249682E00E94AE295A924A922B
:20226000E3EEF7E0D2010E94C3358FE00E94C3330E94270922968FE00E94AE295A924A9208
:2022800081E0D2018C9381E00E94C3335A924A9283E0D2018C9381E00E94C3330E943708FB
:2022A000249682E00E94AE29AFEFB7E08C9187FB16F00C947D110E9483110E94B807A1EE5B
:2022C000B7E00C9103FB16F00C9478110E94C9285A924A92D201E4E5FEE60E94F43389E090
:2022E0000E94C3330E94AF0B229689E00E94AE29A6E2B0E08C9182FBDEF386E0481A80E0A5
:20230000580A2696089573E17CBD2B982D982C9823982598399870E87093610070E07093D1
:2023200061000895A881B9818C918EBD8DB587FFFDCFA0E6B1E08EB58C9308955A924A9262
:2023400080E0D2018C9381E00E94C3330E949211229681E00E94AE29089581E00E94BD33CB
:2023600080E0A881B9818C93A881B9810C91023018F011F00C94FA115A924A9280E3D20197
:202380008C9381E00E94C3330E949211229681E00E94AE290E949E115A924A92AA81BB81CE
:2023A0008C91D2018C9381E00E94C3330E949211229681E00E94AE290E949E11A881B9818A
:2023C0008C918F5F8C9380916001A881B981AD90BB24A1E6B1E0AA0DBB1D8C93A881B981B9
:2023E0000E94B229A881B9818C918F5F8C9310F40C94B41181E0481A80E0580A2296089590
:202400005A924A9280E5D2018C9381E00E94C3330E949211229681E00E94AE290E949E117C
:202420000E949E110E949E118091600180936501A3EEB7E0EEE5FEE60E94F433A3EEB7E03F
:202440000E94042AE5E6F1E00E949035AFEFB7E08C9186FB16F40C9461125A924A9288E584
:20246000D2018C9381E00E94C3330E949211229681E00E94AE295A924A9288E0D2018C9378
:2024800081E00E94C3330E949211229681E00E94AE290E949E110E949E1180916001809345
:2024A0006601A3EEB7E00E94042AE2E6FEE60E94F433A3EEB7E00E94042AE6E6F1E00E9411
:2024C0009035AFEFB7E08C9185FB16F00C949C125A924A9280E5D2018C9381E00E94C333F9
:2024E0000E949211229681E00E94AE295A924A9288E0D2018C9381E00E94C3330E949211A5
:20250000229681E00E94AE290E949E110E949E118091600180936701A3EEB7E00E94042AA2
:20252000E6E6FEE60E94F433A3EEB7E00E94042AE7E6F1E00E9490350895A3EEB7E0EEE58D
:20254000FEE60E94F433A3EEB7E00E94042AE2E5F1E00E9490355A924A928CEAD2018C93A7
:2025600081E00E94C3330E949211229681E00E94AE295A924A9280EAD2018C9381E00E9464
:20258000C3330E949211229681E00E94AE290E949E115A924A9280915201D2018C9381E09E
:2025A0000E94C3330E949211229681E00E94AE29ACE5B1E08C9199270E941A2AAFEFB7E092
:2025C0008C9186FB16F40C942813A3EEB7E00E94042AE2E6FEE60E94F433A3EEB7E00E9441
:2025E000042AE3E5F1E00E9490355A924A928CEAD2018C9381E00E94C3330E949211229687
:2026000081E00E94AE295A924A9288EAD2018C9381E00E94C3330E949211229681E00E94BB
:20262000AE290E949E115A924A9280915301D2018C9381E00E94C3330E949211229681E0FC
:202640000E94AE29ACE5B1E08C9199270E941A2AAFEFB7E08C9185FB16F00C947213A3EE8E
:20266000B7E00E94042AE6E6FEE60E94F433A3EEB7E00E94042AE4E5F1E00E9490355A9295
:202680004A928CEAD2018C9381E00E94C3330E949211229681E00E94AE295A924A9284EAF0
:2026A000D2018C9381E00E94C3330E949211229681E00E94AE290E949E115A924A9280912E
:2026C0005401D2018C9381E00E94C3330E949211229681E00E94AE29ACE5B1E08C919927E4
:2026E0000E941A2A08955A924A9288E5D2018C9381E00E94C3330E949211229681E00E9437
:20270000AE290E949E110E949E110E949E118091600180936801A3EEB7E0EAE6FEE60E9483
:20272000F433A3EEB7E00E94042AE8E6F1E00E9490350895A3EEB7E0EAE6FEE60E94F43332
:20274000A3EEB7E00E94042AE9E6F1E00E9490355A924A928CEAD2018C9381E00E94C33351
:202760000E949211229681E00E94AE295A924A9280EED2018C9381E00E94C3330E9492111C
:20278000229681E00E94AE290E949E115A924A9280916901D2018C9381E00E94C3330E9486
:2027A0009211229681E00E94AE29ACE5B1E08C9199270E941A2A08955A924A928CEAD20151
:2027C0008C9381E00E94C3330E949211229681E00E94AE295A924A9280E8D2018C9381E087
:2027E0000E94C3330E949211229681E00E94AE290E949E110E949E11AFE5B1E08C919927C6
:202800000E941A2A0895A5E5B1E00C9104FB16F00C9425148FEF9FEFA0E5B1E08D939C932E
:202820005A924A9280E0D2018C9381E00E94C3330E941E1A229681E00E94AE2970916A03AB
:20284000746070936A030C943114A0E0B1E00D911C9141E050E0041B150BA0E5B1E00D93AD
:202860001C9385E090E00E941A2A08950E947D1BA6E5B1E00C91112722273327A7E5B1E066
:202880004D915C91662777270E94D133A0E0B1E00D931D932D933D9391E0A0E0B1E00E9487
:2028A0003E34A3EEB7E0E0E0F1E00E940B35A3EEB7E00E94042AE0E7FEE60E94F43391E02E
:2028C000A0E0B1E00E9462348AEF80935F0180E080935D010E9403148FEF9FEFAEE4B1E00A
:2028E0008D939C93AEE4B1E00E94B6295A924A9280E2D2018C9381E00E94C3330E94E41535
:20290000229681E00E94AE290E94D4215A924A9288E2D2018C9381E00E94C3330E94E415D6
:20292000229681E00E94AE290E94D421A1EEB7E00C9104FB16F00C94AB145A924A9284E01B
:20294000D2018C9381E00E94C3330E94561A229681E00E94AE29A0E5B1E04D915C91AEE475
:20296000B1E00D911C910417150711F00C947214AAE6B3E08C9182FB16F00C94E0145A92DA
:202980004A9281E0D2018C9381E00E94C3330E941E1A229681E00E94AE29A0E0B1E00D91F4
:2029A0001C9141E050E0041B150BA0E5B1E00D931C9370916A037B7F70936A030C946C147D
:2029C000A1EEB7E00C9105FB16F00C94E9140E94F12208950E947D1B81E00E94BD3391E0A1
:2029E000A0E0B1E00E946234A3EEB7E0E8E7FEE60E94F4330E9403148FEF9FEFAEE4B1E002
:202A00008D939C93AEE4B1E00E94B6290E9446215A924A9280E2D2018C9381E00E94C333A5
:202A20000E94E415229681E00E94AE294091600100916101041711F40C9423157091FF0745
:202A400070687093FF070E9446215A924A9288E2D2018C9381E00E94C3330E94E41522961C
:202A600081E00E94AE294091600100916101041711F40C9440157091FF0770687093FF075A
:202A8000AFEFB7E08C9187FB16F00C9449150C946B15A1EEB7E00C9104FB16F00C945E1563
:202AA0005A924A9286E0D2018C9381E00E94C3330E94561A229681E00E94AE29A0E5B1E043
:202AC0004D915C91AEE4B1E00D911C910417150711F00C940215AFEFB7E08C9187FB16F0F4
:202AE0000C94B615AEE4B1E08D919C91A0E0B1E08D939D9388278D938C93AAE6B3E08C916E
:202B000082FB16F00C949615A0E0B1E00D911D912D913C914FEF5FEF60E070E00E94E63427
:202B2000A0E0B1E00D931D932D933D93A0E0B1E00D911D912D913C9142E050E060E070E0DA
:202B40000E94D133A0E0B1E00D931D932D933D93A3EEB7E0EEE7FEE60E94F433A3EEB7E00C
:202B60000E94042AE0E0F1E00E940B35AAE6B3E08C9182FB16F00C94DE155A924A9281E093
:202B8000D2018C9381E00E94C3330E941E1A229681E00E94AE29A0E0B1E00D911C9141E061
:202BA00050E0041B150BA0E5B1E00D931C9370916A037B7F70936A030C94FC1481E0481AF6
:202BC00080E0580A229608955A924A92AA81BB818C91D2018C9381E00E94C3330E94921162
:202BE000229681E00E94AE295A924A9280914F01D2018C9381E00E94C3330E949211229632
:202C000081E00E94AE295A924A9280914E01D2018C9381E00E94C3330E949211229681E069
:202C20000E94AE290E949E1108950E947D1B82E00E94BD3391E0A0E0B1E00E9462340E94A3
:202C400003148FEF9FEFAEE4B1E08D939C93A881B9810E948634AEE4B1E00E94B6290E94DA
:202C600046215A924A9280E4D2018C9381E00E94C3330E944F17229681E00E94AE29A5E5B2
:202C8000B1E00C9107FB16F40C9448160E948D170E9446215A924A9288E4D2018C9381E026
:202CA0000E94C3330E944F17229681E00E94AE29AEE4B1E04D915C91A881B9810D911C9146
:202CC0000417150710F00C949216A881B9810D911C91A6E5B1E04D915527040F151FA881E1
:202CE000B9810D931C93AEE4B1E04D915C91A881B9810D911C910417150780E010F009F01F
:202D000081E08F93A881B9810D911C91003050E0150781E009F080E09F91892B882311F4B8
:202D20000C946516A5E5B1E00C9107FB16F40C949D160E948D170C94F616A881B9810E946A
:202D4000BD29A881B9814D915C91AEE4B1E00D911C910417150781E009F080E08F93A0E559
:202D6000B1E04D915C91AEE4B1E00D911C910417150781E009F080E09F91892B882311F404
:202D80000C94F2165A924A928CE4D2018C9381E00E94C3330E949211229681E00E94AE2991
:202DA0005A924A9280914F01D2018C9381E00E94C3330E949211229681E00E94AE295A923C
:202DC0004A9280914E01D2018C9381E00E94C3330E949211229681E00E94AE290E949E11A4
:202DE0000E948D17A881B9810E94B629A0E5B1E04D915C91AEE4B1E00D911C910417150723
:202E000011F00C942B16AAE6B3E08C9182FB16F00C942B175A924A9281E0D2018C9381E0AF
:202E20000E94C3330E941E1A229681E00E94AE29A0E0B1E00D911C9141E050E0041B150BA2
:202E4000A0E5B1E00D931C9370916A037B7F70936A030C9421164FEF5FEF61E070E0A0E0C1
:202E6000B1E00D911D912D913C91041715072607370718F011F00C943F170C94441770914D
:202E8000550170617093550191E0A0E0B1E00E943E3482E0481A80E0580A229608955A9255
:202EA0004A92AA81BB818C91D2018C9381E00E94C3330E949211229681E00E94AE295A9204
:202EC0004A9280914F01D2018C9381E00E94C3330E949211229681E00E94AE295A924A922B
:202EE00080914E01D2018C9381E00E94C3330E949211229681E00E94AE295A924A928091D7
:202F00006101D2018C9381E00E94C3330E949211229681E00E94AE290895A5E5B1E00C9138
:202F200006FB81E00EF480E08F93009161010F3F81E009F080E09F91892B882311F40C947C
:202F4000A917ADE5B1E08C9199270E941A2A0C94E617A1EEB7E00C9104FB16F00C94BE17F1
:202F60005A924A9284E0D2018C9381E00E94C3330E94561A229681E00E94AE29A5E5B1E07B
:202F80000C9105FB16F00C94DD175A924A9288E2D2018C9381E00E94C3330E94E41522968A
:202FA00081E00E94AE294091610100916001041711F00C94C5170C94E6170E94411AA0E65A
:202FC000B1E00C9100FB16F40C94DD1708950E947D1BA9E5B1E00D911127AAE5B1E04D9160
:202FE0005C910E94C733A0E5B1E00D931C93A3EEB7E0E0E5F1E00E940335A3EEB7E00E9481
:20300000042AE0E7FEE60E94F433A0E5B1E00E94BD298AEF80935F018FEF9FEFAEE4B1E055
:203020008D939C93AEE4B1E00E94B6290E94AF180E94D421A1EEB7E00C9104FB16F00C9435
:203040002F185A924A9284E0D2018C9381E00E94C3330E94561A229681E00E94AE29A0E5E9
:20306000B1E04D915C91AEE4B1E00D911C910417150711F00C941218A1EEB7E00C9105FBC1
:2030800016F00C9445180E94F12208950E947D1BA0E0B1E00D911C9141E050E0041B150BB5
:2030A000A0E5B1E00D931C93A3EEB7E0E8E7FEE60E94F4338FEF9FEFAEE4B1E08D939C9389
:2030C000AEE4B1E00E94B6290E9446210E94AF184091600100916101041711F40C94751868
:2030E0007091FF0770687093FF07AFEFB7E08C9187FB16F00C948C18A3EEB7E0EEE7FEE6E9
:203100000E94F433A3EEB7E00E94042AEEE4F1E00E9403350C94AE18A1EEB7E00C9104FB49
:2031200016F00C94A1185A924A9286E0D2018C9381E00E94C3330E94561A229681E00E944A
:20314000AE29A0E5B1E04D915C91AEE4B1E00D911C910417150711F00C94601808955A9270
:203160004A9280EAD2018C9381E00E94C3330E949211229681E00E94AE295A924A9280916E
:203180004F01D2018C9381E00E94C3330E949211229681E00E94AE295A924A9280914E01F5
:2031A000D2018C9381E00E94C3330E949211229681E00E94AE290E949E11089582E00E945B
:2031C000BD330E947D1BA0E0B1E00D911C9141E050E0041B150BA0E5B1E00D931C93AEE4E2
:2031E000B1E00E9486348FEF9FEFAEE4B1E08D939C93A881B9810E948634AEE4B1E00E94E0
:20320000B6290E944621AEE4B1E04D915C91A881B9810D911C910417150710F00C943D19FD
:20322000A881B9810D911C91A9E5B1E04D915527040F151FA881B9810D931C93AEE4B1E04B
:203240004D915C91A881B9810D911C910417150780E010F009F081E08F93A881B9810D91E1
:203260001C91003050E0150781E009F080E09F91892B882311F40C941019A5E5B1E00C9156
:2032800003FB16F40C9456195A924A9280ECD2018C9381E00E94C3330E944F17229681E0D7
:2032A0000E94AE290E94D0190C94BD195A924A9281ECD2018C9381E00E94C3330E944F176C
:2032C000229681E00E94AE29A881B9810E94BD29A881B9814D915C91AEE4B1E00D911C91D5
:2032E0000417150781E009F080E08F93A0E5B1E04D915C91AEE4B1E00D911C910417150735
:2033000081E009F080E09F91892B882311F40C94B9195A924A9282ECD2018C9381E00E94C2
:20332000C3330E949211229681E00E94AE295A924A9280914F01D2018C9381E00E94C333AC
:203340000E949211229681E00E94AE295A924A9280914E01D2018C9381E00E94C3330E94E1
:203360009211229681E00E94AE290E949E110E94D019A881B9810E94B629A0E5B1E04D9164
:203380005C91AEE4B1E00D911C910417150711F00C94FD1882E0481A80E0580A229608950A
:2033A000A5E5B1E00C9102FB81E00EF480E08F93009161010F3F81E009F080E09F91892B94
:2033C000882311F40C94EC19AEE5B1E08C9199270E941A2A0C941D1AA1EEB7E00C9104FB18
:2033E00016F00C94011A5A924A9284E0D2018C9381E00E94C3330E94561A229681E00E9428
:20340000AE29A5E5B1E00C9101FB16F00C94141A0E94AF184091610100916001041711F0A3
:203420000C94081A0C941D1A0E94411AA0E6B1E00C9100FB16F40C94141A08955A924A920A
:203440008DE4D2018C9381E00E94C3330E949211229681E00E94AE290E949E115A924A9220
:20346000AA81BB818C91D2018C9381E00E94C3330E949211229681E00E94AE290E949E11B5
:2034800008955A924A9280EFD2018C9381E00E94C3330E949211229681E00E94AE290E94F4
:2034A0009E110E949E110E949E11089581E00E94BD3382E00E94BD33A0E5B1E00D911C91D6
:2034C00044E550E00E94EA29A881B9814D935C93AEE4B1E00D911C91A881B9814D915C9110
:2034E0000E94EA29A881B9814D935C93A881B9818C91AA81BB818C93A5E5B1E00C9104FB28
:2035000016F00C94941A91E0AA81BB810E944F34AAE6B3E08C9182FB16F40C94941AAA811A
:20352000BB818C91865D8C9340916801AA81BB810C91041711F40C94131BA8E6B1E08C91C8
:203540008F5F8C93AC81BD810C91043081E009F080E08F930091E007033081E009F080E0E1
:203560009F91892B882311F40C94E01A5A924A9280916801D2018C9381E00E94C3335A9204
:203580004A9289E1D2018C9381E00E94C3335A924A9280916801D2018C9381E00E94C333CD
:2035A0005A924A9280E2D2018C9381E00E94C3330E94070A289684E00E94AE290C94081BE5
:2035C0005A924A9280916801D2018C9381E00E94C3335A924A9289E2D2018C9381E00E9496
:2035E000C3335A924A9280916801D2018C9381E00E94C3335A924A9280E3D2018C9381E02A
:203600000E94C3330E94070A289684E00E94AE29AA81BB814C9100916801041711F00C94CA
:203620009D1A0E94B80783E0481A80E0580A249608950E948023ABE6B1E00E94A935A2E526
:20364000B1E00C930E948023ABE6B1E00E94A935A3E5B1E00C930E948023ABE6B1E00E9492
:20366000A935A4E5B1E00C930895ABE6B1E0E5E6F1E00E949035E89442E0A2EEB7E08C910F
:20368000ABE6B1E00E94302CABE6B1E0E6E6F1E00E949035E89442E0A2EEB7E08C91ABE671
:2036A000B1E00E94302CABE6B1E0E7E6F1E00E949035E89442E0A2EEB7E08C91ABE6B1E050
:2036C0000E94302C08950E948023ABE6B1E00E94A935A9E6B1E00C930895ABE6B1E0E8E61C
:2036E000F1E00E949035E89442E0A2EEB7E08C91ABE6B1E00E94302C089580E0809365011A
:2037000080E08093660180E08093670180E08093680170916A037D7F70936A030895089504
:2037200081E00E94BD3381E00E94BD3381E0A881B9818C930E94920EAFEFB7E08C9187FBAA
:2037400016F00C94A51B0C94AD1C70916A03706470936A03A881B981AD90BB24A1E5B1E052
:20376000AA0DBB1D8C91AA81BB818C9334990C94D91BAFEFB7E08C9187FB16F40C94C71B56
:20378000AA81BB818C9180518C930C94CB1BAA81BB810E94B2290E94C428A6E2B0E08C9188
:2037A00084FBDEF70E94C42870916A03706470936A0333990C94FD1BAFEFB7E08C9187FB1D
:2037C00016F40C94EA1BAA81BB818C91805F8C930C94EF1BAA81BB818C918F5F8C930E94DB
:2037E000C428A6E2B0E08C9183FBDEF70E94C42870916A03706470936A03AA81BB818C9191
:20380000A881B981AD90BB24A1E5B1E0AA0DBB1D8C93AAE6B3E08C9186FB16F00C945A1C87
:2038200070916A037F7B70936A03A881B9810C91013011F00C94261C0E94500DA3EEB7E075
:20384000E8E8FEE60E94F4330C94401C023011F00C94341C0E94670DA3EEB7E0E0E9FEE6E1
:203860000E94F4330C94401C033011F00C94401C0E947E0DA3EEB7E0E8E9FEE60E94F43380
:20388000A3EEB7E00E94042AEA81FB810E9490355A924A92E3EEF7E0D2010E94C3358FE096
:2038A0000E94C3330E94270922968FE00E94AE290E94B80735990C94841CAFEFB7E08C913D
:2038C00087FB882780F9809580FBAFEFB7E08C9187F98C93AFEFB7E08C9187FB16F40C943F
:2038E000761CA881B9818C918F5F8C9370916A03706470936A030E94C428A6E2B0E08C9134
:2039000085FBDEF70E94C42832990C94891C0C94AD1CA881B9810C91043011F00C94AA1BB1
:203920000E949D120E9400120E94950D5A924A92E3EEF7E0D2010E94C3358FE00E94C3335A
:203940000E94270922968FE00E94AE290E94B807A6E2B0E08C9182FBDEF382E0481A80E0ED
:20396000580A2496089584E00E94BD3383E00E94BD3384E00E94BD3381E00E94BD33A0E03A
:20398000B1E00E9488340091DF07013011F00C94E41CA7E5B1E00D911C9122273327A6E559
:2039A000B1E04C915527662777270E94D133AE81BF810D931D932D933D9391E0AE81BF811D
:2039C0000E943E340C94FE1C0091DF07023011F00C94FE1CAAE5B1E00D911C9122273327A7
:2039E000A9E5B1E04C915527662777270E94D133AE81BF810D931D932D933D93A1EEB7E009
:203A00000C9105FB16F40C940D1DA2EFB7E0E0E0F1E00E94942C0C94FB1DABE6B1E0E0EA76
:203A2000FEE60E94F433E89441E0A2EEB7E08C91ABE6B1E00E94502CABE6B1E0E2EAFEE6E6
:203A40000E94E43511F00C940D1DEBE6F1E0AC81BD810E94C3350E948023ABE6B1E00E9430
:203A6000A935A881B9810C930E948023ABE6B1E00E94A935AFE4B1E00C930E948023ABE6E6
:203A8000B1E00E94A935AEE4B1E00C930E948023AFE4B1E08C9182FBA5E2B0E08C9181F9A2
:203AA0008C93ABE6B1E0E4EAFEE60E94E43581E009F080E08F93ABE6B1E0E8EAFEE60E9402
:203AC000E43581E009F080E09F91892B882311F40C94811D70916A03746070936A03A0E00F
:203AE000B1E00D911D912D913C9140E050E061E070E00E94E634A0E0B1E00D931D932D93A0
:203B00003D93ABE6B1E0ECEAFEE60E94E43511F00C94A31D70916A037B7F70936A03AEE473
:203B2000B1E00D911C9122273327A881B9814C915527662777270E94E634AA81BB810D935C
:203B40001D932D933D93ABE6B1E0E0EBFEE60E94E43581E009F080E08F93ABE6B1E0E4EBCC
:203B6000FEE60E94E43581E009F080E09F91892B882311F40C940D1DAAE6B3E08C9182FBD1
:203B800016F00C94D51DA0E0B1E00D911D912D913C9140E050E061E070E00E94EB34A0E083
:203BA000B1E00D931D932D933D9370916A037B7F70936A03A0E0B1E00D911D912D913C91D4
:203BC000AA81BB814D915D916D917C910E94E634A0E0B1E00D931D932D933D93A2EEB7E0D3
:203BE0008C910E94172CA2EEB7E08C91A2EFB7E00E94012C2998AE81BF814D915D916D918E
:203C00007C91A0E0B1E00D911D912D913C91041715072607370718F011F00C94111E0C9495
:203C20001E1EA3EEB7E0E8EBFEE60E94F4337091FF0770687093FF070C942C1EA3EEB7E0A6
:203C4000E0E0F1E00E940B35A3EEB7E00E94042AE0E7FEE60E94F43341E050E062E070E0A2
:203C6000A0E0B1E00D911D912D913C91041715072607370710F00C94421E709155017F7E66
:203C8000709355018CE0481A80E0580A289608957091FF077F777093FF0781E00E94BD33E7
:203CA00081E00E94BD3381E00E94BD3381E0AA81BB818C93A0E0B8E0E8EBFDE60E94F433A0
:203CC000A0E0B8E00E94B92BA2EFB7E00E94B92B0E94930780E0AC81BD818C93AA81BB810B
:203CE0000C91063010F00C94B51E86E0A881B9818C930091DF07023018F011F00C94821EA4
:203D00000C94901EA0E0B8E0E8ECFEE60E94F433A0E0B8E0E0E0F1E00E94682C0C94B11E6E
:203D2000A1EEB7E00C9105FB16F40C94A51EA0E0B8E0EEECFEE60E94F433A0E0B8E0E0E0DC
:203D4000F1E00E94682C0C94B11EA0E0B8E0E4EDFEE60E94F433A0E0B8E0E0E0F1E00E940C
:203D6000682C81E0AC81BD818C9381E0AA81BB818C93AC81BD818C918F5F8C93EC81FD815D
:203D8000019111274DE050E00E94C733E3EFF0E0E00FF11F0E94902CAC81BD810D91112720
:203DA0004DE050E00E94C733A3EFB0E0A00FB11F0E94DE35082F003011F00C94E91EAC8178
:203DC000BD810C9141E0041BA881B9810C930C94F01EAC81BD810C91063011F00C94B91E62
:203DE000A881B9810C91063010F00C94131FAC81BD810D9111274DE050E00E94C733A3EFEF
:203E0000B0E0A00FB11FE0EAFEE60E94F433AC81BD818C918F5F8C93AC81BD810C91073048
:203E200011F00C94F71EA0E0B1E00E94DE35082F003011F00C94501F5A924A9283E0D20191
:203E40008C9381E00E94C3335A924A9281E0D2018C9381E00E94C3330E943708249682E039
:203E60000E94AE2970916A03706870936A035A924A92D201EAEDFEE60E94F4338AE00E94E8
:203E8000C3330E94270922968AE00E94AE290E94B8077091FF0770687093FF070C94551F62
:203EA00070916A03706470936A0334990C94691F0E94C428A6E2B0E08C9184FBDEF7AA8119
:203EC000BB818C918F5F8C9370916A03706470936A0333990C94871F0E94C428A6E2B0E012
:203EE0008C9183FBDEF7AA81BB810E94B229AA81BB810C91003011F00C94821F81E0AA816C
:203F0000BB818C9370916A03706470936A03AAE6B3E08C9186FB16F00C940E2070916A0391
:203F20007F7B70936A0381E0AC81BD818C935A924A9281E0D2018C9381E00E94C3335A922C
:203F40004A92A885B9858C91D2018C9381E00E94C3330E943708249682E00E94AE295A92B0
:203F60004A92EE81FF81019111274DE050E00E94C733E3EFF0E0E00FF11FD2010E94C335A5
:203F80008DE00E94C3330E94270922968DE00E94AE29AC81BD818C918F5F8C93AC81BD81AC
:203FA0000C91073011F00C94971F5A924A9281E0D2018C9381E00E94C3335A924A92AE81CB
:203FC000BF818C91D2018C9381E00E94C3330E943708249682E00E94AE2970916A037068DD
:203FE00070936A035A924A92EC81FD81019111274DE050E00E94C733E3EFF0E0E00FF11F3A
:20400000D2010E94C3358DE00E94C3330E94270922968DE00E94AE290E94B80735990C94EF
:204020002520EA81FB81019111274DE050E00E94C733E3EFF0E0E00FF11FA2EFB7E00E9426
:20404000C33589E0AA81BB818C9332990C9449200E94C42835990C943D20AA81BB810D9147
:2040600011274DE050E00E94C733A3EFB0E0A00FB11F0E94A72F0E940631329B0C942A2066
:2040800088E0AA81BB818C937091FF0770687093FF07A881B9814C91AA81BB810C910417EB
:2040A00018F011F00C9456200C94551FAA81BB810C91073018F011F00C9460200C94681E43
:2040C0000E94930783E0481A80E0580A2696089581E00E94BD3381E00E94BD33A0E0B8E0C6
:2040E000E8EBFDE60E94F433A0E0B8E00E94B92BA0E0B8E0EAEBFDE60E94F433A0E0B8E0F2
:204100000E94B92B0E945730A2EEB7E08C93A0E0B8E0E4EEFEE60E94F433A2EEB7E08C91CF
:20412000A0E0B8E00E94012C88E0A881B9818C93E89441E0A2EEB7E08C91ABE6B1E00E9409
:20414000502CA881B9810E94B229AC81BD810C91003011F00C94D120E89441E0A2EEB7E075
:204160008C91ABE6B1E00E94502CABE6B1E00E946135AA81BB810C93AA81BB818C9180FB83
:20418000A881B9818C91A1EEB7E00E949E340E9494340C9016F0092201C0082A0C920C949D
:2041A000EF20A881B9818C91A1EEB7E00E949E340E9494340C900822689409F4E894ABE6A0
:2041C000B1E00E94A4348D9388278C93E89441E0A2EEB7E08C91ABE6B1E00E94302CA881BC
:2041E000B9810C91003011F00C94A1200E942B21ABE6B1E00E94A935A2E6B1E00C930E946C
:204200002B21ABE6B1E00E94A935A3E6B1E00C930E942B21ABE6B1E00E946135AAE6B1E08E
:204220000C93A1EEB7E00C9100FB16F00C9420210E942B21ABE6B1E00E94A93500936600B1
:20424000A2EEB7E08C910E94172C82E0481A80E0580A24960895ABE6B1E0E0EAFEE60E94E6
:20426000F433E89441E0A2EEB7E08C91ABE6B1E00E94502CABE6B1E0E2EAFEE60E94E43569
:2042800011F00C942B210E9480230895A1EEB7E00C9105FB16F00C94CB2140916601009131
:2042A0006501041711F00C94BB210E942B21ABE6B1E00E94A935A6E6B1E00C930E9480236F
:2042C000ABE6B1E00E94A935AFE4B1E00C930E948023ABE6B1E00E94A935AEE4B1E00C93D0
:2042E0000091DF07013011F00C947B2191E0AEE4B1E00E945734AAE6B3E08C9181FB16F056
:204300000C948E21AEE4B1E00D911C9140E050E8040F151FAEE4B1E00D931C930E9480238A
:20432000ABE6B1E0E4EAFEE60E94E43581E009F080E08F93ABE6B1E0E8EAFEE60E94E4357F
:2043400081E009F080E09F91892B882311F40C94B821AAE6B3E08C9181FB882780F980959D
:2043600080FBAAE6B3E08C9181F98C930C94552180E080936501A5E6B1E08C918F5F8C93B4
:204380000E948023ABE6B1E00E94A935A1E6B1E00C930C94D321E894A2EEB7E08C91A1E6A4
:2043A000B1E00E944F2C089582E00E94BD33A1EEB7E00C9105FB16F00C94E3220091650159
:2043C000003011F00C94A522AEE4B1E00D911C91003050E8150711F00C94FF2170916A0324
:2043E000726070936A03ADE5B1E08C918F5F8C9380915F01815080935F010E941E23AAE606
:20440000B3E08C9181FB16F00C942F22AEE4B1E00D911C91003050E0150711F00C942322A9
:2044200070916A037D7F70936A03ADE5B1E08C918F5F8C9380915F01815080935F010E94FE
:204440001E230C942F22AEE4B1E00D911C9140E050E8041B150BAEE4B1E00D931C938AE346
:2044600090E0AAE5B1E08D939C9341E050E0A2EEB7E08C91AAE5B1E0E8940E94312C82E3C8
:2044800090E3AAE5B1E08D939C930E9477230091DF07013011F00C94522291E0AEE4B1E0AD
:2044A0000E943334ABE6B1E0EFE4F1E00E949035E89442E0A2EEB7E08C91ABE6B1E00E9420
:2044C000302CABE6B1E0EEE4F1E00E949035E89442E0A2EEB7E08C91ABE6B1E00E94302C52
:2044E00000EE40914F01041BA6E6B1E00C930091660140914E01041BA6E6B1E00C9300914E
:20450000DF07013011F00C948A2291E0AEE4B1E00E945734AAE6B3E08C9181FB16F00C9414
:204520009D22AEE4B1E00D911C9140E050E8040F151FAEE4B1E00D931C9380E390E3AAE5D8
:20454000B1E08D939C930E947723ABE6B1E0E0E6F1E00E949035E89442E0A2EEB7E08C913D
:20456000ABE6B1E00E94302C0091660140916001041BA6E6B1E00C93A5E6B1E08C918F5FEF
:204580008C9300916501003211F00C94E122ABE6B1E0E6E6F1E00E949035E89442E0A2EEDB
:2045A000B7E08C91ABE6B1E00E94302C8DE09AE0AAE5B1E08D939C930E94772380E0809322
:2045C00065010C94EB22E894A2EEB7E08C91A0E6B1E00E942F2C82E0481A80E0580A2296B6
:2045E00008958AE390E3AAE5B1E08D939C930E94772380E390E3AAE5B1E08D939C930E94AC
:2046000077230E9477230E94772381E396E4AAE5B1E08D939C930E94772386E490E0AAE596
:20462000B1E08D939C9341E050E0A2EEB7E08C91AAE5B1E0E8940E94312C08958AE390E3ED
:20464000AAE5B1E08D939C930E94772382E390E3AAE5B1E08D939C930E94772380E390E356
:20466000AAE5B1E08D939C930E9477230E94772384E390E3AAE5B1E08D939C930E947723CE
:2046800080E390E0AAE5B1E08D939C9341E050E0A2EEB7E08C91AAE5B1E0E8940E94312CA8
:2046A000ABE6B1E0EDE5F1E00E949035E89442E0A2EEB7E08C91ABE6B1E00E94302CABE63B
:2046C000B1E0EFE5F1E00E949035E89442E0A2EEB7E08C91ABE6B1E00E94302C8DE09AE054
:2046E000AAE5B1E08D939C930E9477230895E894A2EEB7E08C91AAE5B1E00E942D2C0895FA
:20470000E89442E0A2EEB7E08C91ABE6B1E00E94502C0895A0E0B8E0E8EBFDE60E94F43343
:20472000A0E0B8E00E94B92B08950F921F922F923F924F925F927F92AF92BF920F931F9391
:204740002F933F934F935F936F937F938F939F93AF93BF93CF93DF93EF93FF938FB78F93A5
:204760008F918FBFFF91EF91DF91CF91BF91AF919F918F917F916F915F914F913F912F919B
:204780001F910F91BF90AF907F905F904F903F902F901F900F9018958DE00E94BD33E2EF05
:2047A000F7E0A881B9810E94C3350E94481EAFEFB7E08C9187FB16F00C94E0230C949F253C
:2047C0000E94920EAFEFB7E08C9187FB16F00C94EB230C949F250E948A23A881B9810E9457
:2047E000B92BA2EEB7E08C91A2EFB7E00E94012C0091DF07013011F00C9462245A924A9203
:20480000D201E0EFFEE60E94F4338DE00E94C3330E94270922968DE00E94AE290E94B31C63
:20482000AFEFB7E08C9187FB16F40C946024A1EEB7E00C9102FB16F00C9420240E94DC133B
:204840000E9415160E94670D70916A03706870936A035A924A92E3EEF7E0D2010E94C335E2
:204860008FE00E94C3330E94270922968FE00E94AE290E947E0DA1EEB7E00C9101FB16F0CD
:204880000C9460245A924A92D201EEEFFEE60E94F4338EE00E94C3330E94270922968EE0D1
:2048A0000E94AE29A2EEB7E08C910E94172CA2EEB7E08C91A2EFB7E00E94012C0E94EA147B
:2048C0000C944325023011F00C94C1245A924A92D201ECE0FFE60E94F4338EE00E94C333FD
:2048E0000E94270922968EE00E94AE290E94B31CAFEFB7E08C9187FB16F40C94BF240E94D3
:20490000DE180E94670D70916A03706870936A035A924A92E3EEF7E0D2010E94C3358FE089
:204920000E94C3330E94270922968FE00E94AE29A1EEB7E00C9101FB16F00C94BF240E9483
:204940007E0D5A924A92D201EAE1FFE60E94F4338FE00E94C3330E94270922968FE00E9416
:20496000AE29A2EEB7E08C910E94172CA2EEB7E08C91A2EFB7E00E94012C0E9446180C945C
:204980004325033011F00C9403255A924A92D201EAE2FFE60E94F4338DE00E94C3330E94F7
:2049A000270922968DE00E94AE290E94191B0E949D120E94C4280E94670D5A924A92E3EEC5
:2049C000F7E0D2010E94C3358FE00E94C3330E94270922968FE00E94AE290E947E0D5A9201
:2049E0004A92D201E0E9FDE60E94F4338CE00E94C3330E94270922968CE00E94AE290E947E
:204A000000120C944325043011F00C9443255A924A92D201E8E3FFE60E94F4338DE00E941C
:204A2000C3330E94270922968DE00E94AE290E94631B0E949A130E94C4280E94670D5A9211
:204A40004A92E3EEF7E0D2010E94C3358FE00E94C3330E94270922968FE00E94AE290E944A
:204A60007E0D5A924A92D201ECEAFDE60E94F4338CE00E94C3330E94270922968CE00E94F2
:204A8000AE290E947313A1EEB7E00C9101FB16F00C9461250E94950D70916A03706870939F
:204AA0006A035A924A92E3EEF7E0D2010E94C3358FE00E94C3330E94270922968FE00E940A
:204AC000AE29A2EEB7E08C910E94172C0E94B807A1EEB7E00C9103FB16F00C949A250E94AD
:204AE000C928AFEFB7E08C9187FB16F00C948A255A924A92D201E6E4FFE60E94F43389E020
:204B00000E94C3330E94AF0B229689E00E94AE290C949A255A924A92D201E0E5FFE60E94C1
:204B2000F43388E00E94C3330E94AF0B229688E00E94AE29A6E2B0E08C9182FBDEF30E9434
:204B4000831170916A03706470936A0380E08093E0078DE0481A80E0580A229608950E942D
:204B60007D1B81E00E94BD3384E00E94BD330E9493070E94920EAFEFB7E08C9187FB16F05C
:204B80000C94C4250C94F1260E948A23A2EFB7E00E94B92B80E0AA81BB818C93AA81BB818B
:204BA0008C918F5F8C9383E0E3EEF7E001E00A93A2EFB7E00E94CF3587E0E3EEF7E004E081
:204BC0000A93A2EFB7E00E94042A0E94CF35A2EFB7E00E94042AE8E5FFE60E94F433A2EF96
:204BE000B7E00E94042AEA81FB810E9417350091DF07023018F011F00C9400260C940A2631
:204C0000A2EFB7E00E94042AEAE5FFE60E94F4330C942326A1EEB7E00C9105FB16F40C94C9
:204C20001B26A2EFB7E00E94042AE0E6FFE60E94F4330C942326A2EFB7E00E94042AE6E61A
:204C4000FFE60E94F433A2EFB7E0E881F9810E94942C40E050E060E070E0A881B9810D9158
:204C60001D912D913C910E94F03411F00C94CE25A2EEB7E08C91A2EFB7E00E94012C0091D5
:204C8000DF07013011F00C9459265A924A92D201ECE6FFE60E94F4338CE00E94C3330E941C
:204CA000270922968CE00E94AE290E9436140C94A326023011F00C9471265A924A92D201CD
:204CC000E8E7FFE60E94F4338DE00E94C3330E94270922968DE00E94AE290E94E7170C94A2
:204CE000A326033011F00C948B265A924A92D201E0E9FDE60E94F4338CE00E94C3330E94B0
:204D0000270922968CE00E94AE290E9400120E94351B0C94A326043011F00C94A3265A922D
:204D20004A92D201ECEAFDE60E94F4338CE00E94C3330E94270922968CE00E94AE290E942D
:204D400073130E946D1B0E94670D70916A03706870936A035A924A92E3EEF7E0D2010E94F2
:204D6000C3358FE00E94C3330E94270922968FE00E94AE290E947E0D5A924A92D201E6E82C
:204D8000FFE60E94F4338FE00E94C3330E94270922968FE00E94AE290E94950D70916A033A
:204DA000706870936A035A924A92E2EFF7E0D2010E94C3358DE00E94C3330E94270922963F
:204DC0008DE00E94AE29A2EEB7E08C910E94172C0E9483110E94B807A6E2B0E08C9182FB7B
:204DE000DEF370916A03706470936A0380E08093E00785E0481A80E0580A249608958DE089
:204E00000E94BD338FE00E94BD33E2EFF7E0AA81BB810E94C3350E94481EAFEFB7E08C91FC
:204E200087FB16F00C9416270C94B6280E94920EAFEFB7E08C9187FB16F00C9421270C94EB
:204E4000B6280E948A23AA81BB810E94B92BA2EEB7E08C91A2EFB7E00E94012C0091DF0786
:204E6000013011F00C946E275A924A92D201EEEFFEE60E94F4338EE00E94C3330E942709CE
:204E800022968EE00E94AE290E94B31CE3EEF7E0A881B9810E94C335AFEFB7E08C9187FB89
:204EA00016F40C9455270E94EA140E94670D70916A03706870936A035A924A92EA81FB81B1
:204EC000D2010E94C3358FE00E94C3330E94270922968FE00E94AE290C946428023011F08D
:204EE0000C94AC275A924A92D201EAE1FFE60E94F4338FE00E94C3330E94270922968FE02B
:204F00000E94AE290E94B31CE3EEF7E0A881B9810E94C335AFEFB7E08C9187FB16F40C9484
:204F200093270E9446180E94670D70916A03706870936A035A924A92EA81FB81D2010E94C7
:204F4000C3358FE00E94C3330E94270922968FE00E94AE290C946428033011F00C94212897
:204F60005A924A92D201E6E9FFE60E94F4338EE00E94C3330E94270922968EE00E94AE29A2
:204F80000E94191B0E9400120E94670D5A924A92E3EEF7E0D2010E94C3358FE00E94C3338D
:204FA0000E94270922968FE00E94AE29A3EEB7E0E8E7FEE60E94F43381E090E0AEE4B1E0E7
:204FC0008D939C93AEE4B1E00D911C91033050E0150718F011F00C941F28AEE4B1E0AD9045
:204FE000BC90A4E6B1E0AA0DBB1D4C91AEE4B1E0AD90BC90A1E5B1E0AA0DBB1D0C910417D4
:2050000011F40C9418287091FF0770687093FF07A3EEB7E0E4EAFFE60E94F433A3EEB7E0F7
:205020000E94042AEEE4F1E00E9403350C941F28AEE4B1E00E94B62910F40C94E2270C944B
:205040006428043011F00C9464285A924A92D201ECEAFFE60E94F4338EE00E94C3330E949C
:20506000270922968EE00E94AE290E94631B0E9473130E94670D5A924A92E3EEF7E0D201C0
:205080000E94C3358FE00E94C3330E94270922968FE00E94AE29A3EEB7E0E8E7FEE60E9480
:2050A000F4334091680100916901041711F40C946428A3EEB7E0EAEBFFE60E94F43370919C
:2050C000FF0770687093FF070E947E0D5A924A92E3EEF7E0D2010E94C3358FE00E94C333D8
:2050E0000E94270922968FE00E94AE29A2EEB7E08C910E94172C0E9483110E94B807A1EEEF
:20510000B7E00C9103FB16F00C94B1280E94C928AFEFB7E08C9187FB16F00C94A1285A921C
:205120004A92D201E6E4FFE60E94F43389E00E94C3330E94AF0B229689E00E94AE290C94B1
:20514000B1285A924A92D201E0E5FFE60E94F43388E00E94C3330E94AF0B229688E00E944A
:20516000AE29A6E2B0E08C9182FBDEF370916A03706470936A0380E08093E0078CE1481AFA
:2051800080E0580A2496089582E390E00E941A2A0895E1E0F0E00E940B2A089581E00E9496
:2051A000BD330091E00741E0040FA881B9810C935A924A928CE0D2018C9381E00E94C33332
:2051C0005A924A92AC81BD818C91D2018C9381E00E94C3330E943708249682E00E94AE291E
:2051E000A0EEB7E08C91A1EEB7E00E949E340E9494340C900822689409F4E89416F00C9488
:205200001F295A924A92D201E0ECFFE60E94F43384E00E94C3330E942709229684E00E94A5
:20522000AE29A0EEB7E08C91A1EEB7E00E949E340E9494348C9189238C930C943B295A9279
:205240004A92D201E4ECFFE60E94F43383E00E94C3330E942709229683E00E94AE29A0EE32
:20526000B7E08C91A1EEB7E00E949E340E9494349C91982B9C930E94C42881E0481A80E0A6
:20528000580A2296089500E01CE20F931F9300917C00007F0E6000937C000E94FA33482FD6
:2052A000592F1F910F910E94EA29AEE4B1E04D935C93A0E0B1E0EEE4F1E00E940335E0E021
:2052C000F1E0A0E0B8E00E94C335E0E0F8E0A0E0B1E01127222702E031E00E94A834E0E0F0
:2052E000F1E0A3EEB7E00E94C335A3EEB7E00E94042AE8ECFFE60E94F4335A924A928BE06E
:20530000D2018C9381E00E94C3335A924A9281E0D2018C9381E00E94C3330E9437082496F3
:2053200082E00E94AE295A924A92E3EEF7E0D2010E94C3358FE00E94C3330E942709229624
:205340008FE00E94AE290895299A0E94C42829980E94C4280895481A590A0895481A882718
:20536000580A08958C9181508C930895ED91FC91EF5FFF4FFC93EE930895ED91FC91E150F4
:20538000F040FC93EE93089509D00E94C73300FC10D0089503D01ED001F8F9CF0024E89420
:2053A00057FF02C009D0689400F80BD010F80124089502D009D00895509540954F5F5F4F05
:2053C0000895E89417FF0895009510950F5F1F4F68940895352F242FE894452B11F46894AE
:2053E0000895512F402F0027112780E1440F551F001F111F021B130B416018F4020F131F20
:205400004E7F8A9599F708958F938D918823E9F711978F91089588EE93E00CD03197D9F7E6
:2054200008953197F1F70895689462F80895E89462F80895EF93FF93EE27E82BE92B31F0AB
:20544000E0EAFFE03197F1F70197D1F7FF91EF9108952E9846D0032D44D0062F42D0052F4B
:2054600040D0042F3ED01F932F93112725E0E89435D00F3F21F411502040D1F768942F9101
:205480001F91002308952E9A1AE028D01A95E9F72E9800E426D024D023D022D021D005E9FB
:2054A00020D014E6E0DF013021F01A95D9F791EE7DC077C01AE02E9801E413D011D010D046
:2054C0000FD00ED0D0DF49F06CD082E390E00E941A2A1A9581F792EE69C063C00FEF01C07E
:2054E00000270093C6000090C00007FEFCCF0091C600089544275D916D913D90550F661F0B
:20550000331C089545D0F6DF01E5A3DF11F093EE4DC0A9DF0E3F11F095EE48C092E088273C
:20552000DDDF01930197E1F7D9DFD8DF3AC030D0E1DF08E58EDF11F094EE38C0CFDF0EEF02
:20554000D0DF92E088270191CCDF0197E1F7C6DFC5DFC4DF0F7100936E0311272FEF31D007
:20556000BDDF002329F411502040C9F796EE1EC018C00E948F1B0CD086DF08F408959ACF05
:2055800007D081CF05D081E00EC002D098EE13C09927889490936B0390936D0390936C0323
:2055A00008952E9A9BDF99278894089504D02E9A95DF0894089590936B0300936D0308941A
:2055C000089595E39A95F1F70895E3E7F3E0ACE6B4E0992791931197E9F70895E894843006
:2055E00059F0863049F0803039F068948B3021F08C3011F093E136C30090750300F8009216
:20560000750388940895E3ECF5E0B0D245555A4A09F4089527C38A93D8DF5BD3C0F091E14D
:20562000F2DFA8F088818823F9F0E3E8F5E08A9511F07096FCCF80818F7721F434968081EC
:20564000CDDF38F48881823078F093E10BC3219609C3809374033496A0ECB3E0A4D239D395
:2056600088F392E1D0DF98F38991E0EDF3E07ED24050524094E1F9F4A3EDB3E074D2A0EC7F
:20568000B3E047D23DD2A6E7B3E057D2ABEDB3E068D24050504019F4A9EEB3E044D2EBE762
:2056A000F3E055D28091D50380937A0396E1882311F0833008F0D6C225D281FD23D2AFE711
:2056C000B3E03BD2A6EDB3E04ED2A3E8B3E051D284E05FD215D2A5E8B3E02FD2A0ECB3E0E7
:2056E00022D20E94EB344BD2E8EDF3E035D20050104019F4E5EEF3E011D20E94EB34809121
:20570000D2038093890395E18823A9F28695F0F791F63BD1EFD1AAE8B3E00FD200907503F6
:2057200000FA80917403882379F4E89486E00F5F164F2040304010F068948BE88093740351
:20574000992790F9909375033EF4A1EFB3E0E1D131D1AFE7B3E0F1D182E080938E03AFE7D5
:20576000B3E0D7D1A6E9B3E0E8D1ACE9B3E0E5D181C28C918E32C9F4A6E9B3E0CAD1B2D217
:20578000B09680818E32B9F50090750300FA22273327028D138D16F424893589F5D119F438
:2057A000AFE7B3E01BC006D11AC08C35C9F3CFD309F05CC2F1D2F0F083858F7CF1F40090D3
:2057C000750322273327028D138D00FE02C024893589F0D087D270F0A0ECB3E09AD1A6E9C2
:2057E000B3E0ABD1ACE9B3E0A8D1AAE9B3E07DD1C3D140C2089595E335C296E333C257D44A
:2058000068F0A5D349F48F9390E263D48F9138F4923419F490E204C029C208948827089588
:205820008F93B1D48F9108F025C2882708952DD430F0FA93EA9344D408F01BC221C20895DE
:2058400024D428F0808D827009F08FEF13C28FEF089548E005C044E003C042E001C041E0FA
:20586000552713D4A8F090E219D690F0FA93EA9356F45F934F93BF93AF9352D6AF91BF91D8
:205880004F915F9120F00E94363308F0F2C1F8C1089548E005C044E003C042E001C041E044
:2058A0005527F3D3A0F090E2F9D588F0FA93EA9356F45F934F93BF93AF9332D6AF91BF910A
:2058C0004F915F9118F089D608F0D3C1D9C10895FF93EF933CD360D258F0FF93EF93E2EB50
:2058E000F3E0A0EAB3E08CE05FD1EF91FF918894AF91BF9130F488278C93923409F4BAC130
:20590000089555D30E94C93511978EE28D9355D30E94C935EEEBF3E0ACEAB3E086E044C1E2
:20592000FF93EF93FBD2E4CFFF93EF9332D203C0FF93EF93DDD2AF91BF9118F4D6D0FDD026
:20594000089556C3FF93EF9324D203C0FF93EF93CFD2AF91BF9118F488278C93089534C311
:20596000802FC8D090918503891B982F8395892790918903892311F488940895C5D005D083
:205980002ED008F4089516D0F7CFE5E8F3E0D0D00E94EB3472F08091890380FD06C03695B6
:2059A0002795179507958695F8CF0E5F1F4F2F4F3F4F08958091890302501040204030406E
:2059C00080FD06C0000F111F221F331F8695F8CFE5E8F3E0ADD00C94E6340ED1D6DFA6E7D8
:2059E000B3E0A1D00090750300FE04C0000F111F221F331F0F93012F122F232F33270E94A6
:205A0000E6346CD18F91E8F00090750300FA9927880F991FE80FF91F222733270191119140
:205A200036F4219131913F7032976FEF7FE0329748EF5FEF0417150716F42607370710F099
:205A400091E210C117C151D002E0A02E442755276627772704C0AEE8B3E05BD0AA243F938F
:205A60002F931F930F937F936F935F934F93AF92B6DFAF904F915F916F917F910F911F91E3
:205A80002F913F91AAE8B3E0CD90DD90ED90FD9010F4913249F5C016D106E206F30618F1E1
:205AA00099278191982B8191982B2EF48191982B81918F70982B31F4A1FE0EC04F5F5F4FC3
:205AC0006F4F7F4F802F912F15D09127969516F48027880F00F7C3CF32970EF43297AEE808
:205AE000B3E02BD0C7C092E2BDC0002711272227332708950F5F1F4F2F4F3F4F0895552700
:205B0000662777270C94E634015010402040304008950D911D912D913D91089501911191E9
:205B20002191319108954D915D916D917D910895419151916191719108950D931D932D938A
:205B40003D9308950193119321933193089541935193619371930895222733270191119167
:205B60000895662777274D915D9108954191519108954D935D9308950D931D930895402FDA
:205B8000512F622F732F089500501040204030400895569547958A95E1F70895440F551F86
:205BA0008A95E1F7089584E09F9391919D938A95E1F79F910895E881F9810895A881B981C2
:205BC00018960895E881F9813C960895E881F9813896B8CFE881F9813896A0CFF3DFB2CF7D
:205BE000F1DF9CCFEFDFA4CFA881B9811C960895E881F98174960895FBDF90CFE881F981D1
:205C0000808D0895E881F98170960895FBDF86CFF9DF8ECFF7DF96CF0090750300FA8FEF35
:205C2000819381931EF481938FE0819342C00090750300FA0193119316F42193319339C0DC
:205C4000E881F98179960895D3DF7CCFA881B981549608950F900F900F900F900F900F9014
:205C6000089522960894909373030895882799E4F9CF2296889490E0F6CF2296889408958F
:205C800022960894089580EA01C084E8E881F9819F93908D892B808F9F910895E881F981D7
:205CA0009F93908D80958923808F9F91089588E0EDCF8091C40388608093C40308950E94FB
:205CC000822A08F0D7CFCECF0E94972A08F0D2CFC9CFA0ECB3E0E5ECF3E0F1CF80E1A0ECD9
:205CE000B3E006C080E0A0ECB3E002C0AFDF80E81ADF0E94F03431F4E8941196EA2FFB2FCA
:205D00001597BCCF9D91EA2FFB2F792F777E872B8E93149793FF18C00F931F932F933F936E
:205D20009F93AF93BF93D0DFBF91AF919F91A8F094FF06C0AF93BF939ED3BF91AF9168F050
:205D40003F912F911F910F91F8DED7DFEF93FF93B6DFFF91EF91689408957ECF4FDF867014
:205D6000B1F454DF00271E7F442752E0C9DE52DF45DF867061F440DFF3DD20F067DFB6DFC9
:205D800038F083C2913221F480DF91E26BCF91E069CFDDD009F06BCFFA93EA93A4D008F4AF
:205DA0006FCF83858F3099F0827C89F480818E3271F0853E61F08030D1F0A881B9819C91A3
:205DC0009F3311F0981303C07BE0B4D0A1F0B09681E0480F25F78827581F5F934F930FD01F
:205DE00008F080DF4F915F91D0F6903C08F492E4E991F99137CFAEEBB3E0BBDE3ACF009010
:205E0000750300FC19C0A6E9B3E083DEAFE7B3E05F934F9388DE0E94F0344F915F9161F464
:205E2000A3E8B3E06D917D914617570710F091E319CF0FD05FDE1ECF0CD03F932F931F93F6
:205E40000F938EDD08F008CF0F911F912F913F910895A0ECB3E05DCE4ED0E0F18081853EEC
:205E600081F1803071F1B09681E0480FBDF78827581F5F934F93C3DF08F034DF4F915F9175
:205E800068F7913239F55F934F937FDD3F932F931F930F93E0DDF8F0BFDE71DE0F911F91B9
:205EA0002F913F917F936F935F934F9398DD0F911F912F913F9180F4913281F4B8DE99D268
:205EC000DDCFAEEBB3E055DE24DEAAE9B3E051DE34DED0CEC7CEBECE93E2C4DEBFCEA881C2
:205EE000B98112960AC044275527A6E9B3E006C0ACEAB3E002C0AAE9B3E035DE0ADE5A932E
:205F00004A93F0DE50F048814F70552785E046DEE40FF51F49915991ADCEB2CEACEAB3E01A
:205F2000ECDFFF93EF93E0EAF3E0FA93EA93EF91FF914DCFFF93EF9381919D919F3311F088
:205F4000891711F47A95C1F7EF91FF910895E2EBF3E08F93E89499277BE0AEF08D918A3257
:205F600019F48FE368940FC08E3239F4733011F4E894F3CF80E2689406C0803011F480E2C9
:205F80000CC00E948E3481938F3309F49395743009F4E8947A9509F704C080E281937A9561
:205FA000E9F780E081933C9799238F91089588E0FBDD389788278D930895389683E0F4DDC4
:205FC0003B9788278D93089583858D930895928D9D93938D9D930090750300FE05C0948937
:205FE0009D9395899D93089599279D939D9308957C96D9DDB0970895882311F49AE432CEEF
:2060000031E0E5ECF5E0E8942081222329F4AEF0EE2EFF2E689411C0281749F1EF93FF9309
:206020008F933296AEEBB3E085D38F91FF91EF9121F41181192310FF1CC03A9519F0E65ED8
:20604000FD4FE2CFC6F4EE2DFF2D18D080839183EF93FF938F9386E03296AE2FBF2FEEEB3B
:20606000F3E086E0A1DD8F91FF91EF9103CE95E4F9CD96E4F7CD94E4F5CD9DDD09E1002429
:2060800001920A95E9F779970895882369F071E0E5ECF5E09081981749F07A9519F0E65EF1
:2060A000FD4FF8CF93E4DECD9AE4DCCD089580E8ECDF28F08395E1F791E48827D3CDDACD41
:2060C0007ADD02C0E2DF20F081E0E0DD6CD1D5CF08958F939F9360DE7F918F91E8F0972FDA
:2060E0006385692760FF03C0692760FD18C0FF93EF9382DFFA93EA93EF91FF9168F074DD09
:2061000077DF5CDD64DF66DD3FDD39F053DCEEDD40F0BBD073DDB1CD0895B5DDFBCF98E42D
:20612000A1CDAECDE881F9819181917251F1E881F981808D81FD23C07096F0DC912F802FAA
:20614000D9DC3497FFDCE881F9813C96F1DC0E94F03430F03896708172607193112704C0EB
:20616000E881F981799619279170E80FF91F8081169521F08F93FCDD8F9108957BCD91E0AF
:2061800071CD92E66FCDFF93EF938F939F9311C0FF93EF938F939F9339D058F4923451F50B
:2061A00008C0FF93EF938F939F93F6DD08F5923409F552DE00F121D09F918F91FF93EF93A5
:2061C0001BDFAF91BF91C0F0FA93EA93EF91FF919F938BE0E9DC9F91917090629D9312960E
:2061E00089D2149687D265DD4EDDE991F99142CD92E338DD089430CD31CD85EE819388276A
:206200009FE181939A95E9F7B097089509F02ECDC3DD70F183858F7D11F093E323CDFF93F5
:20622000EF9356D0EF91FF9118F1FF93EF9321D0EF91FF9185EE80833CDD22273327028DC7
:20624000138D0090750300FE02C0248935899CDC69F015D0C4DB80E08193819316F4819370
:20626000819327DDB0F7913211F4EAC0FAC008940895EEEBF3E0AAE9B3E086E059C2E0E1E6
:20628000FF27AEE8B3E084E053C2AADCC1DC0E94F034C2F0C9F038DC732761F4622751F411
:2062A0005127569539F49CDCB3DC0E94EB3484E0EDDCE0CC00E012E086E0F0DCDBCC84E09E
:2062C000E5DCD8CC91E601C091E086E0DFDCCACC71E0E5ECF5E08081882351F0FF93EF9301
:2062E0003296AEEBB3E086E025D2EF91FF9129F07A9529F0E65EFD4FEECF97E4B3CCBACC2F
:206300007BDC2EDB28F07ADC81FFF0CC9DDC8FC09132F9F4A0DBE8F08FEF81938193009072
:20632000750300FE03C081938FE08193C2DC0F931F932F933F9351DB3F912F911F910F91FB
:2063400030F4913221F496DC72DC34DBDCCF93E289CC089580DB30F18FEF819381930090AE
:20636000750300FE03C081938FE08193A2DC3F932F931F930F932ADCB2DD0F911F912F9142
:206380003F9180F0028F138F0090750300FE02C0248B358B8EDC0EDB57DCA7DB3BDC80E2D2
:2063A0007DDC889408952ADC83FF09C021DCAE2FBF2F34968081877F819386DCC0F01EDCC1
:2063C00086FF16C087FF02C080FF12C088DD78F0AE2FBF2F1B968C9180628C93519681E416
:2063E0005DDCFEDBAADB1A9785D163DC3AC0089541CCE0DA809189038F9374DC18F018D063
:2064000058DC88948F9190F08A9529F0E0ECF3E085DB70DBF1CF409189034A9531F0E0EC21
:20642000F3E07CDB041B71DB5DCC24CC089508DC772792E080E071930197E9F7F2501ACC19
:2064400080E1A0ECB3E0E4ECF3E0908193FF08958193BF93AF9338DCAF91BF9108F40895F4
:206460000AC080E0A0ECB3E0E4ECF3E0908193FF0895819329CCEAE7F3E0819181FF089514
:2064800057DB47DBEA2FFB2F31960E94E634A2E9B3E053DB149718CCE881F981092E9181DB
:2064A000902111F08894089592E6DCCBE881F98191819A7279F1E881F9818F93908D95FF31
:2064C00006C048DF48F1B3DFE881F981908D709625DBF12EE02E0EDB349734DBE881F9812B
:2064E0003C9626DB401751076207730718F4349729DB92641F259860E881F9817896919315
:206500009F2D9170EE0DF91F8F918193169531F04ADFF6CE92E6A6CB8F910895889408954F
:20652000F3DA332312F493E69DCB19F467DB85FDA1CB58DB0E94F034C1F1A8F53F932F9338
:206540001F930F937CD05C2D6D2D7E2D4F935EDB76D052DB7F936F935F9317DA5F916F9158
:206560007F915C156D057E0528F089F05C196D097E0901C02FDB51506040704040F07F93A4
:206580006F935F932CDA5F916F917F91A0F712DA4F91B5DAABDBC8F00F911F912F913F91F1
:2065A00039DB73DE67CB91E65DCB002339F6812F817021F6A9DAB5DF40F028DB9BDA2ADBD7
:2065C0009FDE20F4913011F00894089517DB81FD2ECF50CB91E260DF70F110DB81FD2CC03F
:2065E0005F934F9375D04F915F9130F1662777270E94F03410F4402F512F61D0415050405B
:20660000B8F00F3F81F410FF0EC004DBBF93AF935F934F938CDD4F915F91AF91BF9158F0DA
:20662000F5DA0EDB03C00F5F1F4F81918D93E6CFF1DA4ED01FCB089528DB91E013CB809149
:206640008903369527951795412F90E0869530F03695279517950894991FF8CFC12ED22E23
:20666000E32E492308959AE217DF40F128D041505040B8F08D9195FD04C00F3F71F410FF66
:206680000CC0C8DABF93AF935F934F9314DF4F915F91AF91BF9190F0E9CF81930F5F1F4FA9
:2066A000E6CF05DB9FDA401751076207730718F495DA80E4EBDAAEDA0BD0DCCA08957BDA9B
:2066C000908DA4DABDDA712F7170E00FF71F0895E881F981808D84DA9BDA6DDA0E94EB349A
:2066E00028F021F08D7F808F889408958660808F0894089581E0AA24BB24C82ED82EE82E4F
:20670000F82ECC0CCC0CCC0C8827B6948795B69487958A29B6948795BC288D93BD9284E17F
:206720008F0DE294EE0C881FED28ED928D930895689401C0E894FA93EA93BA93AA93082E52
:206740008817CFB6A190BD90CFBEAB04CFB68A95C9F7CFBE46F438F4802DA881B981EA8189
:20676000FB8122DACFBEA991B991E991F99108955A924A92480E591E08955A924A92480E9F
:206780008827581E0895480E8827581E08950F92B801469F8001479F100D569F100D0F90AB
:2067A00008950F921F922F92C801D901489F80014A9F90014B9F202C499F100D211D321DDC
:2067C0005A9F202C589F100D211D321D599F200D311D689F200D311D699F300D789F300D45
:2067E0002F901F900F9008950E9473340D920020D9F7089570917A00706470937A0000901E
:206800007A0006FCFCCF70917A00706470937A0000907A0006FCFCCF80917800909179006B
:206820000895903051F000240D911C91000F111F001D9A95D9F71C930E930895903051F002
:206840000D911C911695079508F410689A95D1F71C930E930895903029F08C91880F9A9592
:20686000E9F78C930895903041F00D911C91000F111F9A95E1F71C930E930895903071F0EC
:206880000D911D912D913C91000F111F221F331F9A95D1F73C932E931E930E930895903019
:2068A00029F08C9186959A95E9F78C930895903041F00D911C91169507959A95E1F71C9383
:2068C0000E930895903071F00D911D912D913C9136952795179507959A95D1F73C932E932C
:2068E0001E930E930895C89531960020089591E005C092E003C094E001C098E0F4DF0D923E
:206900009A95E1F70895E80FF91FF1CF82E001C084E099279D938A95E9F70895813618F032
:206920008B3708F48F7D089591E0882321F08894991F8A95E9F7892F90950895883018F0B6
